{
  "_format": "hh-sol-artifact-1",
  "contractName": "PositionManager",
  "sourceName": "contracts/PositionManager.sol",
  "abi": [
    {
      "inputs": [
        {
          "internalType": "address",
          "name": "_factory",
          "type": "address"
        },
        {
          "internalType": "address",
          "name": "_WETH9",
          "type": "address"
        }
      ],
      "stateMutability": "nonpayable",
      "type": "constructor"
    },
    {
      "inputs": [],
      "name": "WETH9",
      "outputs": [
        {
          "internalType": "address",
          "name": "",
          "type": "address"
        }
      ],
      "stateMutability": "view",
      "type": "function"
    },
    {
      "inputs": [
        {
          "internalType": "address",
          "name": "token0",
          "type": "address"
        },
        {
          "internalType": "address",
          "name": "token1",
          "type": "address"
        },
        {
          "internalType": "uint24",
          "name": "fee",
          "type": "uint24"
        },
        {
          "internalType": "uint128",
          "name": "liquidity",
          "type": "uint128"
        },
        {
          "internalType": "int24",
          "name": "tickLower",
          "type": "int24"
        },
        {
          "internalType": "int24",
          "name": "tickUpper",
          "type": "int24"
        }
      ],
      "name": "burnAndCollect",
      "outputs": [],
      "stateMutability": "nonpayable",
      "type": "function"
    },
    {
      "inputs": [],
      "name": "factory",
      "outputs": [
        {
          "internalType": "address",
          "name": "",
          "type": "address"
        }
      ],
      "stateMutability": "view",
      "type": "function"
    },
    {
      "inputs": [
        {
          "internalType": "address",
          "name": "token0",
          "type": "address"
        },
        {
          "internalType": "address",
          "name": "token1",
          "type": "address"
        },
        {
          "internalType": "uint24",
          "name": "fee",
          "type": "uint24"
        },
        {
          "internalType": "uint128",
          "name": "liquidity",
          "type": "uint128"
        },
        {
          "internalType": "int24",
          "name": "tickLower",
          "type": "int24"
        },
        {
          "internalType": "int24",
          "name": "tickUpper",
          "type": "int24"
        }
      ],
      "name": "mint",
      "outputs": [],
      "stateMutability": "payable",
      "type": "function"
    },
    {
      "inputs": [],
      "name": "refundETH",
      "outputs": [],
      "stateMutability": "payable",
      "type": "function"
    },
    {
      "inputs": [
        {
          "internalType": "address",
          "name": "token",
          "type": "address"
        },
        {
          "internalType": "uint256",
          "name": "amountMinimum",
          "type": "uint256"
        },
        {
          "internalType": "address",
          "name": "recipient",
          "type": "address"
        }
      ],
      "name": "sweepToken",
      "outputs": [],
      "stateMutability": "payable",
      "type": "function"
    },
    {
      "inputs": [
        {
          "internalType": "uint256",
          "name": "amount0Owed",
          "type": "uint256"
        },
        {
          "internalType": "uint256",
          "name": "amount1Owed",
          "type": "uint256"
        },
        {
          "internalType": "bytes",
          "name": "data",
          "type": "bytes"
        }
      ],
      "name": "uniswapV3MintCallback",
      "outputs": [],
      "stateMutability": "nonpayable",
      "type": "function"
    },
    {
      "inputs": [
        {
          "internalType": "uint256",
          "name": "amountMinimum",
          "type": "uint256"
        },
        {
          "internalType": "address",
          "name": "recipient",
          "type": "address"
        }
      ],
      "name": "unwrapWETH9",
      "outputs": [],
      "stateMutability": "payable",
      "type": "function"
    },
    {
      "stateMutability": "payable",
      "type": "receive"
    }
  ],
  "bytecode": "0x60c060405234801561001057600080fd5b506040516200162a3803806200162a8339810160408190526100319161006b565b6001600160601b0319606092831b8116608052911b1660a05261009d565b80516001600160a01b038116811461006657600080fd5b919050565b6000806040838503121561007d578182fd5b6100868361004f565b91506100946020840161004f565b90509250929050565b60805160601c60a05160601c61153c620000ee60003980609c5280610353528061047d52806106f25280610b2a5280610b8a5280610c0b52508061024152806105545280610716525061153c6000f3fe60806040526004361061007f5760003560e01c80634aa4a4fc1161004e5780634aa4a4fc1461017d578063c45a0155146101a8578063d3487997146101bd578063df2ab5bb146101dd5761012a565b806312210e8a1461012f5780632a60ffe31461013757806349404b7c1461014a5780634a67bade1461015d5761012a565b3661012a573373ffffffffffffffffffffffffffffffffffffffff7f0000000000000000000000000000000000000000000000000000000000000000161461012857604080517f08c379a000000000000000000000000000000000000000000000000000000000815260206004820152600960248201527f4e6f742057455448390000000000000000000000000000000000000000000000604482015290519081900360640190fd5b005b600080fd5b6101286101f0565b61012861014536600461110e565b610202565b610128610158366004611299565b61034f565b34801561016957600080fd5b5061012861017836600461110e565b610515565b34801561018957600080fd5b506101926106f0565b60405161019f9190611362565b60405180910390f35b3480156101b457600080fd5b50610192610714565b3480156101c957600080fd5b506101286101d83660046112e7565b610738565b6101286101eb366004611183565b610787565b47156102005761020033476108a4565b565b6040805160608101825273ffffffffffffffffffffffffffffffffffffffff80891682528716602082015262ffffff86169181019190915260006102667f0000000000000000000000000000000000000000000000000000000000000000836109f2565b90508073ffffffffffffffffffffffffffffffffffffffff16633c8a7d8d3086868960405180604001604052808981526020013373ffffffffffffffffffffffffffffffffffffffff168152506040516020016102c391906114c1565b6040516020818303038152906040526040518663ffffffff1660e01b81526004016102f2959493929190611383565b6040805180830381600087803b15801561030b57600080fd5b505af115801561031f573d6000803e3d6000fd5b505050506040513d601f19601f8201168201806040525081019061034391906112c4565b50505050505050505050565b60007f000000000000000000000000000000000000000000000000000000000000000073ffffffffffffffffffffffffffffffffffffffff166370a08231306040518263ffffffff1660e01b8152600401808273ffffffffffffffffffffffffffffffffffffffff16815260200191505060206040518083038186803b1580156103d857600080fd5b505afa1580156103ec573d6000803e3d6000fd5b505050506040513d602081101561040257600080fd5b505190508281101561047557604080517f08c379a000000000000000000000000000000000000000000000000000000000815260206004820152601260248201527f496e73756666696369656e742057455448390000000000000000000000000000604482015290519081900360640190fd5b8015610510577f000000000000000000000000000000000000000000000000000000000000000073ffffffffffffffffffffffffffffffffffffffff16632e1a7d4d826040518263ffffffff1660e01b815260040180828152602001915050600060405180830381600087803b1580156104ee57600080fd5b505af1158015610502573d6000803e3d6000fd5b5050505061051082826108a4565b505050565b6040805160608101825273ffffffffffffffffffffffffffffffffffffffff80891682528716602082015262ffffff86169181019190915260006105797f0000000000000000000000000000000000000000000000000000000000000000836109f2565b6040517fa34123a700000000000000000000000000000000000000000000000000000000815290915073ffffffffffffffffffffffffffffffffffffffff82169063a34123a7906105d290879087908a90600401611492565b6040805180830381600087803b1580156105eb57600080fd5b505af11580156105ff573d6000803e3d6000fd5b505050506040513d601f19601f8201168201806040525081019061062391906112c4565b50506040517f4f1eb3d800000000000000000000000000000000000000000000000000000000815273ffffffffffffffffffffffffffffffffffffffff821690634f1eb3d89061069f903390889088907fffffffffffffffffffffffffffffffffffffffffffffffffffffffffffffffff90819060040161143f565b6040805180830381600087803b1580156106b857600080fd5b505af11580156106cc573d6000803e3d6000fd5b505050506040513d601f19601f820116820180604052508101906103439190611260565b7f000000000000000000000000000000000000000000000000000000000000000081565b7f000000000000000000000000000000000000000000000000000000000000000081565b6000610746828401846111be565b9050841561076257805151602082015161076291903388610b28565b83156107805761078081600001516020015182602001513387610b28565b5050505050565b60008373ffffffffffffffffffffffffffffffffffffffff166370a08231306040518263ffffffff1660e01b8152600401808273ffffffffffffffffffffffffffffffffffffffff16815260200191505060206040518083038186803b1580156107f057600080fd5b505afa158015610804573d6000803e3d6000fd5b505050506040513d602081101561081a57600080fd5b505190508281101561088d57604080517f08c379a000000000000000000000000000000000000000000000000000000000815260206004820152601260248201527f496e73756666696369656e7420746f6b656e0000000000000000000000000000604482015290519081900360640190fd5b801561089e5761089e848383610d06565b50505050565b6040805160008082526020820190925273ffffffffffffffffffffffffffffffffffffffff84169083906040518082805190602001908083835b6020831061091b57805182527fffffffffffffffffffffffffffffffffffffffffffffffffffffffffffffffe090920191602091820191016108de565b6001836020036101000a03801982511681845116808217855250505050505090500191505060006040518083038185875af1925050503d806000811461097d576040519150601f19603f3d011682016040523d82523d6000602084013e610982565b606091505b505090508061051057604080517f08c379a000000000000000000000000000000000000000000000000000000000815260206004820152600360248201527f5354450000000000000000000000000000000000000000000000000000000000604482015290519081900360640190fd5b6000816020015173ffffffffffffffffffffffffffffffffffffffff16826000015173ffffffffffffffffffffffffffffffffffffffff1610610a3457600080fd5b508051602080830151604093840151845173ffffffffffffffffffffffffffffffffffffffff94851681850152939091168385015262ffffff166060808401919091528351808403820181526080840185528051908301207fff0000000000000000000000000000000000000000000000000000000000000060a085015294901b7fffffffffffffffffffffffffffffffffffffffff0000000000000000000000001660a183015260b58201939093527fe34f199b19b2b4f47f68442619d555527d244f78a3297ea89325f843f87b8b5460d5808301919091528251808303909101815260f5909101909152805191012090565b7f000000000000000000000000000000000000000000000000000000000000000073ffffffffffffffffffffffffffffffffffffffff168473ffffffffffffffffffffffffffffffffffffffff16148015610b835750804710155b15610ccc577f000000000000000000000000000000000000000000000000000000000000000073ffffffffffffffffffffffffffffffffffffffff1663d0e30db0826040518263ffffffff1660e01b81526004016000604051808303818588803b158015610bf057600080fd5b505af1158015610c04573d6000803e3d6000fd5b50505050507f000000000000000000000000000000000000000000000000000000000000000073ffffffffffffffffffffffffffffffffffffffff1663a9059cbb83836040518363ffffffff1660e01b8152600401808373ffffffffffffffffffffffffffffffffffffffff16815260200182815260200192505050602060405180830381600087803b158015610c9a57600080fd5b505af1158015610cae573d6000803e3d6000fd5b505050506040513d6020811015610cc457600080fd5b5061089e9050565b73ffffffffffffffffffffffffffffffffffffffff8316301415610cfa57610cf5848383610d06565b61089e565b61089e84848484610edb565b6040805173ffffffffffffffffffffffffffffffffffffffff8481166024830152604480830185905283518084039091018152606490920183526020820180517bffffffffffffffffffffffffffffffffffffffffffffffffffffffff167fa9059cbb000000000000000000000000000000000000000000000000000000001781529251825160009485949389169392918291908083835b60208310610ddb57805182527fffffffffffffffffffffffffffffffffffffffffffffffffffffffffffffffe09092019160209182019101610d9e565b6001836020036101000a0380198251168184511680821785525050505050509050019150506000604051808303816000865af19150503d8060008114610e3d576040519150601f19603f3d011682016040523d82523d6000602084013e610e42565b606091505b5091509150818015610e70575080511580610e705750808060200190516020811015610e6d57600080fd5b50515b61078057604080517f08c379a000000000000000000000000000000000000000000000000000000000815260206004820152600260248201527f5354000000000000000000000000000000000000000000000000000000000000604482015290519081900360640190fd5b6040805173ffffffffffffffffffffffffffffffffffffffff85811660248301528481166044830152606480830185905283518084039091018152608490920183526020820180517bffffffffffffffffffffffffffffffffffffffffffffffffffffffff167f23b872dd00000000000000000000000000000000000000000000000000000000178152925182516000948594938a169392918291908083835b60208310610fb857805182527fffffffffffffffffffffffffffffffffffffffffffffffffffffffffffffffe09092019160209182019101610f7b565b6001836020036101000a0380198251168184511680821785525050505050509050019150506000604051808303816000865af19150503d806000811461101a576040519150601f19603f3d011682016040523d82523d6000602084013e61101f565b606091505b509150915081801561104d57508051158061104d575080806020019051602081101561104a57600080fd5b50515b6110b857604080517f08c379a000000000000000000000000000000000000000000000000000000000815260206004820152600360248201527f5354460000000000000000000000000000000000000000000000000000000000604482015290519081900360640190fd5b505050505050565b803573ffffffffffffffffffffffffffffffffffffffff811681146110e457600080fd5b919050565b8035600281900b81146110e457600080fd5b803562ffffff811681146110e457600080fd5b60008060008060008060c08789031215611126578182fd5b61112f876110c0565b955061113d602088016110c0565b945061114b604088016110fb565b9350606087013561115b8161150e565b9250611169608088016110e9565b915061117760a088016110e9565b90509295509295509295565b600080600060608486031215611197578283fd5b6111a0846110c0565b9250602084013591506111b5604085016110c0565b90509250925092565b600081830360808112156111d0578182fd5b6040516040810167ffffffffffffffff82821081831117156111ee57fe5b8160405260608412156111ff578485fd5b60a083019350818410818511171561121357fe5b5082604052611221856110c0565b815261122f602086016110c0565b6060830152611240604086016110fb565b60808301528152611253606085016110c0565b6020820152949350505050565b60008060408385031215611272578182fd5b825161127d8161150e565b602084015190925061128e8161150e565b809150509250929050565b600080604083850312156112ab578182fd5b823591506112bb602084016110c0565b90509250929050565b600080604083850312156112d6578182fd5b505080516020909101519092909150565b600080600080606085870312156112fc578384fd5b8435935060208501359250604085013567ffffffffffffffff80821115611321578384fd5b818701915087601f830112611334578384fd5b813581811115611342578485fd5b886020828501011115611353578485fd5b95989497505060200194505050565b73ffffffffffffffffffffffffffffffffffffffff91909116815260200190565b600073ffffffffffffffffffffffffffffffffffffffff8716825260208660020b818401528560020b60408401526fffffffffffffffffffffffffffffffff8516606084015260a0608084015283518060a0850152825b818110156113f65785810183015185820160c0015282016113da565b81811115611407578360c083870101525b50601f017fffffffffffffffffffffffffffffffffffffffffffffffffffffffffffffffe0169290920160c001979650505050505050565b73ffffffffffffffffffffffffffffffffffffffff959095168552600293840b60208601529190920b60408401526fffffffffffffffffffffffffffffffff918216606084015216608082015260a00190565b600293840b81529190920b60208201526fffffffffffffffffffffffffffffffff909116604082015260600190565b8151805173ffffffffffffffffffffffffffffffffffffffff908116835260208083015182168185015260409283015162ffffff1692840192909252920151909116606082015260800190565b6fffffffffffffffffffffffffffffffff8116811461152c57600080fd5b5056fea164736f6c6343000706000a",
  "linkReferences": {},
  "deployedLinkReferences": {}
}